{"project/contracts/DeviceAccess.sol":{"DeviceAccess":{"abi":[{"anonymous":false,"inputs":[{"indexed":false,"internalType":"address","name":"device","type":"address"},{"indexed":false,"internalType":"string","name":"resource","type":"string"},{"indexed":false,"internalType":"bool","name":"allowed","type":"bool"}],"name":"AccessChecked","type":"event"},{"anonymous":false,"inputs":[{"indexed":false,"internalType":"address","name":"device","type":"address"}],"name":"DeviceRegistered","type":"event"},{"anonymous":false,"inputs":[{"indexed":false,"internalType":"address","name":"device","type":"address"},{"indexed":false,"internalType":"string","name":"resource","type":"string"}],"name":"PermissionGranted","type":"event"},{"inputs":[{"internalType":"address","name":"device","type":"address"},{"internalType":"string","name":"resource","type":"string"}],"name":"checkAccess","outputs":[{"internalType":"bool","name":"","type":"bool"}],"stateMutability":"nonpayable","type":"function"},{"inputs":[{"internalType":"address","name":"device","type":"address"},{"internalType":"string","name":"resource","type":"string"}],"name":"grantPermission","outputs":[],"stateMutability":"nonpayable","type":"function"},{"inputs":[{"internalType":"address","name":"device","type":"address"}],"name":"registerDevice","outputs":[],"stateMutability":"nonpayable","type":"function"}],"evm":{"bytecode":{"linkReferences":{},"object":"608060405234801561000f575f80fd5b506107d28061001d5f395ff3fe608060405234801561000f575f80fd5b506004361061003f575f3560e01c80636dc7b9a514610043578063a5657a911461005f578063bbd9a5fa1461008f575b5f80fd5b61005d600480360381019061005891906103e4565b6100ab565b005b6100796004803603810190610074919061054b565b61013b565b60405161008691906105bf565b60405180910390f35b6100a960048036038101906100a4919061054b565b61023f565b005b60015f808373ffffffffffffffffffffffffffffffffffffffff1673ffffffffffffffffffffffffffffffffffffffff1681526020019081526020015f205f015f6101000a81548160ff0219169083151502179055507f05d7f0c690676ba31675b45bcdb9ff4c34bb10744ec89d329eacd93c79ecc0298160405161013091906105e7565b60405180910390a150565b5f805f808573ffffffffffffffffffffffffffffffffffffffff1673ffffffffffffffffffffffffffffffffffffffff1681526020019081526020015f205f015f9054906101000a900460ff1680156101f857505f808573ffffffffffffffffffffffffffffffffffffffff1673ffffffffffffffffffffffffffffffffffffffff1681526020019081526020015f20600101836040516101dc919061066c565b90815260200160405180910390205f9054906101000a900460ff165b90507f279c11a8b1bbb63fba05d684f3d0eb4223d41dbdec962a7747d627a2422bd7dc84848360405161022d939291906106ca565b60405180910390a18091505092915050565b5f808373ffffffffffffffffffffffffffffffffffffffff1673ffffffffffffffffffffffffffffffffffffffff1681526020019081526020015f205f015f9054906101000a900460ff166102c9576040517f08c379a00000000000000000000000000000000000000000000000000000000081526004016102c090610750565b60405180910390fd5b60015f808473ffffffffffffffffffffffffffffffffffffffff1673ffffffffffffffffffffffffffffffffffffffff1681526020019081526020015f2060010182604051610318919061066c565b90815260200160405180910390205f6101000a81548160ff0219169083151502179055507f3e7a939fe856e16ddb4b017165d29dcf6d87c6bc6115a55d7895ec3e7d4c66a1828260405161036d92919061076e565b60405180910390a15050565b5f604051905090565b5f80fd5b5f80fd5b5f73ffffffffffffffffffffffffffffffffffffffff82169050919050565b5f6103b38261038a565b9050919050565b6103c3816103a9565b81146103cd575f80fd5b50565b5f813590506103de816103ba565b92915050565b5f602082840312156103f9576103f8610382565b5b5f610406848285016103d0565b91505092915050565b5f80fd5b5f80fd5b5f601f19601f8301169050919050565b7f4e487b71000000000000000000000000000000000000000000000000000000005f52604160045260245ffd5b61045d82610417565b810181811067ffffffffffffffff8211171561047c5761047b610427565b5b80604052505050565b5f61048e610379565b905061049a8282610454565b919050565b5f67ffffffffffffffff8211156104b9576104b8610427565b5b6104c282610417565b9050602081019050919050565b828183375f83830152505050565b5f6104ef6104ea8461049f565b610485565b90508281526020810184848401111561050b5761050a610413565b5b6105168482856104cf565b509392505050565b5f82601f8301126105325761053161040f565b5b81356105428482602086016104dd565b91505092915050565b5f806040838503121561056157610560610382565b5b5f61056e858286016103d0565b925050602083013567ffffffffffffffff81111561058f5761058e610386565b5b61059b8582860161051e565b9150509250929050565b5f8115159050919050565b6105b9816105a5565b82525050565b5f6020820190506105d25f8301846105b0565b92915050565b6105e1816103a9565b82525050565b5f6020820190506105fa5f8301846105d8565b92915050565b5f81519050919050565b5f81905092915050565b5f5b83811015610631578082015181840152602081019050610616565b5f8484015250505050565b5f61064682610600565b610650818561060a565b9350610660818560208601610614565b80840191505092915050565b5f610677828461063c565b915081905092915050565b5f82825260208201905092915050565b5f61069c82610600565b6106a68185610682565b93506106b6818560208601610614565b6106bf81610417565b840191505092915050565b5f6060820190506106dd5f8301866105d8565b81810360208301526106ef8185610692565b90506106fe60408301846105b0565b949350505050565b7f446576696365206e6f74207265676973746572656400000000000000000000005f82015250565b5f61073a601583610682565b915061074582610706565b602082019050919050565b5f6020820190508181035f8301526107678161072e565b9050919050565b5f6040820190506107815f8301856105d8565b81810360208301526107938184610692565b9050939250505056fea264697066735822122021a984fb795ab4e3c7b496ac71fa45781c198766302bb802d92f5e1aabe99ae064736f6c63430008140033","opcodes":"PUSH1 0x80 PUSH1 0x40 MSTORE CALLVALUE DUP1 ISZERO PUSH2 0xF JUMPI PUSH0 DUP1 REVERT JUMPDEST POP PUSH2 0x7D2 DUP1 PUSH2 0x1D PUSH0 CODECOPY PUSH0 RETURN INVALID PUSH1 0x80 PUSH1 0x40 MSTORE CALLVALUE DUP1 ISZERO PUSH2 0xF JUMPI PUSH0 DUP1 REVERT JUMPDEST POP PUSH1 0x4 CALLDATASIZE LT PUSH2 0x3F JUMPI PUSH0 CALLDATALOAD PUSH1 0xE0 SHR DUP1 PUSH4 0x6DC7B9A5 EQ PUSH2 0x43 JUMPI DUP1 PUSH4 0xA5657A91 EQ PUSH2 0x5F JUMPI DUP1 PUSH4 0xBBD9A5FA EQ PUSH2 0x8F JUMPI JUMPDEST PUSH0 DUP1 REVERT JUMPDEST PUSH2 0x5D PUSH1 0x4 DUP1 CALLDATASIZE SUB DUP2 ADD SWAP1 PUSH2 0x58 SWAP2 SWAP1 PUSH2 0x3E4 JUMP JUMPDEST PUSH2 0xAB JUMP JUMPDEST STOP JUMPDEST PUSH2 0x79 PUSH1 0x4 DUP1 CALLDATASIZE SUB DUP2 ADD SWAP1 PUSH2 0x74 SWAP2 SWAP1 PUSH2 0x54B JUMP JUMPDEST PUSH2 0x13B JUMP JUMPDEST PUSH1 0x40 MLOAD PUSH2 0x86 SWAP2 SWAP1 PUSH2 0x5BF JUMP JUMPDEST PUSH1 0x40 MLOAD DUP1 SWAP2 SUB SWAP1 RETURN JUMPDEST PUSH2 0xA9 PUSH1 0x4 DUP1 CALLDATASIZE SUB DUP2 ADD SWAP1 PUSH2 0xA4 SWAP2 SWAP1 PUSH2 0x54B JUMP JUMPDEST PUSH2 0x23F JUMP JUMPDEST STOP JUMPDEST PUSH1 0x1 PUSH0 DUP1 DUP4 PUSH20 0xFFFFFFFFFFFFFFFFFFFFFFFFFFFFFFFFFFFFFFFF AND PUSH20 0xFFFFFFFFFFFFFFFFFFFFFFFFFFFFFFFFFFFFFFFF AND DUP2 MSTORE PUSH1 0x20 ADD SWAP1 DUP2 MSTORE PUSH1 0x20 ADD PUSH0 KECCAK256 PUSH0 ADD PUSH0 PUSH2 0x100 EXP DUP2 SLOAD DUP2 PUSH1 0xFF MUL NOT AND SWAP1 DUP4 ISZERO ISZERO MUL OR SWAP1 SSTORE POP PUSH32 0x5D7F0C690676BA31675B45BCDB9FF4C34BB10744EC89D329EACD93C79ECC029 DUP2 PUSH1 0x40 MLOAD PUSH2 0x130 SWAP2 SWAP1 PUSH2 0x5E7 JUMP JUMPDEST PUSH1 0x40 MLOAD DUP1 SWAP2 SUB SWAP1 LOG1 POP JUMP JUMPDEST PUSH0 DUP1 PUSH0 DUP1 DUP6 PUSH20 0xFFFFFFFFFFFFFFFFFFFFFFFFFFFFFFFFFFFFFFFF AND PUSH20 0xFFFFFFFFFFFFFFFFFFFFFFFFFFFFFFFFFFFFFFFF AND DUP2 MSTORE PUSH1 0x20 ADD SWAP1 DUP2 MSTORE PUSH1 0x20 ADD PUSH0 KECCAK256 PUSH0 ADD PUSH0 SWAP1 SLOAD SWAP1 PUSH2 0x100 EXP SWAP1 DIV PUSH1 0xFF AND DUP1 ISZERO PUSH2 0x1F8 JUMPI POP PUSH0 DUP1 DUP6 PUSH20 0xFFFFFFFFFFFFFFFFFFFFFFFFFFFFFFFFFFFFFFFF AND PUSH20 0xFFFFFFFFFFFFFFFFFFFFFFFFFFFFFFFFFFFFFFFF AND DUP2 MSTORE PUSH1 0x20 ADD SWAP1 DUP2 MSTORE PUSH1 0x20 ADD PUSH0 KECCAK256 PUSH1 0x1 ADD DUP4 PUSH1 0x40 MLOAD PUSH2 0x1DC SWAP2 SWAP1 PUSH2 0x66C JUMP JUMPDEST SWAP1 DUP2 MSTORE PUSH1 0x20 ADD PUSH1 0x40 MLOAD DUP1 SWAP2 SUB SWAP1 KECCAK256 PUSH0 SWAP1 SLOAD SWAP1 PUSH2 0x100 EXP SWAP1 DIV PUSH1 0xFF AND JUMPDEST SWAP1 POP PUSH32 0x279C11A8B1BBB63FBA05D684F3D0EB4223D41DBDEC962A7747D627A2422BD7DC DUP5 DUP5 DUP4 PUSH1 0x40 MLOAD PUSH2 0x22D SWAP4 SWAP3 SWAP2 SWAP1 PUSH2 0x6CA JUMP JUMPDEST PUSH1 0x40 MLOAD DUP1 SWAP2 SUB SWAP1 LOG1 DUP1 SWAP2 POP POP SWAP3 SWAP2 POP POP JUMP JUMPDEST PUSH0 DUP1 DUP4 PUSH20 0xFFFFFFFFFFFFFFFFFFFFFFFFFFFFFFFFFFFFFFFF AND PUSH20 0xFFFFFFFFFFFFFFFFFFFFFFFFFFFFFFFFFFFFFFFF AND DUP2 MSTORE PUSH1 0x20 ADD SWAP1 DUP2 MSTORE PUSH1 0x20 ADD PUSH0 KECCAK256 PUSH0 ADD PUSH0 SWAP1 SLOAD SWAP1 PUSH2 0x100 EXP SWAP1 DIV PUSH1 0xFF AND PUSH2 0x2C9 JUMPI PUSH1 0x40 MLOAD PUSH32 0x8C379A000000000000000000000000000000000000000000000000000000000 DUP2 MSTORE PUSH1 0x4 ADD PUSH2 0x2C0 SWAP1 PUSH2 0x750 JUMP JUMPDEST PUSH1 0x40 MLOAD DUP1 SWAP2 SUB SWAP1 REVERT JUMPDEST PUSH1 0x1 PUSH0 DUP1 DUP5 PUSH20 0xFFFFFFFFFFFFFFFFFFFFFFFFFFFFFFFFFFFFFFFF AND PUSH20 0xFFFFFFFFFFFFFFFFFFFFFFFFFFFFFFFFFFFFFFFF AND DUP2 MSTORE PUSH1 0x20 ADD SWAP1 DUP2 MSTORE PUSH1 0x20 ADD PUSH0 KECCAK256 PUSH1 0x1 ADD DUP3 PUSH1 0x40 MLOAD PUSH2 0x318 SWAP2 SWAP1 PUSH2 0x66C JUMP JUMPDEST SWAP1 DUP2 MSTORE PUSH1 0x20 ADD PUSH1 0x40 MLOAD DUP1 SWAP2 SUB SWAP1 KECCAK256 PUSH0 PUSH2 0x100 EXP DUP2 SLOAD DUP2 PUSH1 0xFF MUL NOT AND SWAP1 DUP4 ISZERO ISZERO MUL OR SWAP1 SSTORE POP PUSH32 0x3E7A939FE856E16DDB4B017165D29DCF6D87C6BC6115A55D7895EC3E7D4C66A1 DUP3 DUP3 PUSH1 0x40 MLOAD PUSH2 0x36D SWAP3 SWAP2 SWAP1 PUSH2 0x76E JUMP JUMPDEST PUSH1 0x40 MLOAD DUP1 SWAP2 SUB SWAP1 LOG1 POP POP JUMP JUMPDEST PUSH0 PUSH1 0x40 MLOAD SWAP1 POP SWAP1 JUMP JUMPDEST PUSH0 DUP1 REVERT JUMPDEST PUSH0 DUP1 REVERT JUMPDEST PUSH0 PUSH20 0xFFFFFFFFFFFFFFFFFFFFFFFFFFFFFFFFFFFFFFFF DUP3 AND SWAP1 POP SWAP2 SWAP1 POP JUMP JUMPDEST PUSH0 PUSH2 0x3B3 DUP3 PUSH2 0x38A JUMP JUMPDEST SWAP1 POP SWAP2 SWAP1 POP JUMP JUMPDEST PUSH2 0x3C3 DUP2 PUSH2 0x3A9 JUMP JUMPDEST DUP2 EQ PUSH2 0x3CD JUMPI PUSH0 DUP1 REVERT JUMPDEST POP JUMP JUMPDEST PUSH0 DUP2 CALLDATALOAD SWAP1 POP PUSH2 0x3DE DUP2 PUSH2 0x3BA JUMP JUMPDEST SWAP3 SWAP2 POP POP JUMP JUMPDEST PUSH0 PUSH1 0x20 DUP3 DUP5 SUB SLT ISZERO PUSH2 0x3F9 JUMPI PUSH2 0x3F8 PUSH2 0x382 JUMP JUMPDEST JUMPDEST PUSH0 PUSH2 0x406 DUP5 DUP3 DUP6 ADD PUSH2 0x3D0 JUMP JUMPDEST SWAP2 POP POP SWAP3 SWAP2 POP POP JUMP JUMPDEST PUSH0 DUP1 REVERT JUMPDEST PUSH0 DUP1 REVERT JUMPDEST PUSH0 PUSH1 0x1F NOT PUSH1 0x1F DUP4 ADD AND SWAP1 POP SWAP2 SWAP1 POP JUMP JUMPDEST PUSH32 0x4E487B7100000000000000000000000000000000000000000000000000000000 PUSH0 MSTORE PUSH1 0x41 PUSH1 0x4 MSTORE PUSH1 0x24 PUSH0 REVERT JUMPDEST PUSH2 0x45D DUP3 PUSH2 0x417 JUMP JUMPDEST DUP2 ADD DUP2 DUP2 LT PUSH8 0xFFFFFFFFFFFFFFFF DUP3 GT OR ISZERO PUSH2 0x47C JUMPI PUSH2 0x47B PUSH2 0x427 JUMP JUMPDEST JUMPDEST DUP1 PUSH1 0x40 MSTORE POP POP POP JUMP JUMPDEST PUSH0 PUSH2 0x48E PUSH2 0x379 JUMP JUMPDEST SWAP1 POP PUSH2 0x49A DUP3 DUP3 PUSH2 0x454 JUMP JUMPDEST SWAP2 SWAP1 POP JUMP JUMPDEST PUSH0 PUSH8 0xFFFFFFFFFFFFFFFF DUP3 GT ISZERO PUSH2 0x4B9 JUMPI PUSH2 0x4B8 PUSH2 0x427 JUMP JUMPDEST JUMPDEST PUSH2 0x4C2 DUP3 PUSH2 0x417 JUMP JUMPDEST SWAP1 POP PUSH1 0x20 DUP2 ADD SWAP1 POP SWAP2 SWAP1 POP JUMP JUMPDEST DUP3 DUP2 DUP4 CALLDATACOPY PUSH0 DUP4 DUP4 ADD MSTORE POP POP POP JUMP JUMPDEST PUSH0 PUSH2 0x4EF PUSH2 0x4EA DUP5 PUSH2 0x49F JUMP JUMPDEST PUSH2 0x485 JUMP JUMPDEST SWAP1 POP DUP3 DUP2 MSTORE PUSH1 0x20 DUP2 ADD DUP5 DUP5 DUP5 ADD GT ISZERO PUSH2 0x50B JUMPI PUSH2 0x50A PUSH2 0x413 JUMP JUMPDEST JUMPDEST PUSH2 0x516 DUP5 DUP3 DUP6 PUSH2 0x4CF JUMP JUMPDEST POP SWAP4 SWAP3 POP POP POP JUMP JUMPDEST PUSH0 DUP3 PUSH1 0x1F DUP4 ADD SLT PUSH2 0x532 JUMPI PUSH2 0x531 PUSH2 0x40F JUMP JUMPDEST JUMPDEST DUP2 CALLDATALOAD PUSH2 0x542 DUP5 DUP3 PUSH1 0x20 DUP7 ADD PUSH2 0x4DD JUMP JUMPDEST SWAP2 POP POP SWAP3 SWAP2 POP POP JUMP JUMPDEST PUSH0 DUP1 PUSH1 0x40 DUP4 DUP6 SUB SLT ISZERO PUSH2 0x561 JUMPI PUSH2 0x560 PUSH2 0x382 JUMP JUMPDEST JUMPDEST PUSH0 PUSH2 0x56E DUP6 DUP3 DUP7 ADD PUSH2 0x3D0 JUMP JUMPDEST SWAP3 POP POP PUSH1 0x20 DUP4 ADD CALLDATALOAD PUSH8 0xFFFFFFFFFFFFFFFF DUP2 GT ISZERO PUSH2 0x58F JUMPI PUSH2 0x58E PUSH2 0x386 JUMP JUMPDEST JUMPDEST PUSH2 0x59B DUP6 DUP3 DUP7 ADD PUSH2 0x51E JUMP JUMPDEST SWAP2 POP POP SWAP3 POP SWAP3 SWAP1 POP JUMP JUMPDEST PUSH0 DUP2 ISZERO ISZERO SWAP1 POP SWAP2 SWAP1 POP JUMP JUMPDEST PUSH2 0x5B9 DUP2 PUSH2 0x5A5 JUMP JUMPDEST DUP3 MSTORE POP POP JUMP JUMPDEST PUSH0 PUSH1 0x20 DUP3 ADD SWAP1 POP PUSH2 0x5D2 PUSH0 DUP4 ADD DUP5 PUSH2 0x5B0 JUMP JUMPDEST SWAP3 SWAP2 POP POP JUMP JUMPDEST PUSH2 0x5E1 DUP2 PUSH2 0x3A9 JUMP JUMPDEST DUP3 MSTORE POP POP JUMP JUMPDEST PUSH0 PUSH1 0x20 DUP3 ADD SWAP1 POP PUSH2 0x5FA PUSH0 DUP4 ADD DUP5 PUSH2 0x5D8 JUMP JUMPDEST SWAP3 SWAP2 POP POP JUMP JUMPDEST PUSH0 DUP2 MLOAD SWAP1 POP SWAP2 SWAP1 POP JUMP JUMPDEST PUSH0 DUP2 SWAP1 POP SWAP3 SWAP2 POP POP JUMP JUMPDEST PUSH0 JUMPDEST DUP4 DUP2 LT ISZERO PUSH2 0x631 JUMPI DUP1 DUP3 ADD MLOAD DUP2 DUP5 ADD MSTORE PUSH1 0x20 DUP2 ADD SWAP1 POP PUSH2 0x616 JUMP JUMPDEST PUSH0 DUP5 DUP5 ADD MSTORE POP POP POP POP JUMP JUMPDEST PUSH0 PUSH2 0x646 DUP3 PUSH2 0x600 JUMP JUMPDEST PUSH2 0x650 DUP2 DUP6 PUSH2 0x60A JUMP JUMPDEST SWAP4 POP PUSH2 0x660 DUP2 DUP6 PUSH1 0x20 DUP7 ADD PUSH2 0x614 JUMP JUMPDEST DUP1 DUP5 ADD SWAP2 POP POP SWAP3 SWAP2 POP POP JUMP JUMPDEST PUSH0 PUSH2 0x677 DUP3 DUP5 PUSH2 0x63C JUMP JUMPDEST SWAP2 POP DUP2 SWAP1 POP SWAP3 SWAP2 POP POP JUMP JUMPDEST PUSH0 DUP3 DUP3 MSTORE PUSH1 0x20 DUP3 ADD SWAP1 POP SWAP3 SWAP2 POP POP JUMP JUMPDEST PUSH0 PUSH2 0x69C DUP3 PUSH2 0x600 JUMP JUMPDEST PUSH2 0x6A6 DUP2 DUP6 PUSH2 0x682 JUMP JUMPDEST SWAP4 POP PUSH2 0x6B6 DUP2 DUP6 PUSH1 0x20 DUP7 ADD PUSH2 0x614 JUMP JUMPDEST PUSH2 0x6BF DUP2 PUSH2 0x417 JUMP JUMPDEST DUP5 ADD SWAP2 POP POP SWAP3 SWAP2 POP POP JUMP JUMPDEST PUSH0 PUSH1 0x60 DUP3 ADD SWAP1 POP PUSH2 0x6DD PUSH0 DUP4 ADD DUP7 PUSH2 0x5D8 JUMP JUMPDEST DUP2 DUP2 SUB PUSH1 0x20 DUP4 ADD MSTORE PUSH2 0x6EF DUP2 DUP6 PUSH2 0x692 JUMP JUMPDEST SWAP1 POP PUSH2 0x6FE PUSH1 0x40 DUP4 ADD DUP5 PUSH2 0x5B0 JUMP JUMPDEST SWAP5 SWAP4 POP POP POP POP JUMP JUMPDEST PUSH32 0x446576696365206E6F7420726567697374657265640000000000000000000000 PUSH0 DUP3 ADD MSTORE POP JUMP JUMPDEST PUSH0 PUSH2 0x73A PUSH1 0x15 DUP4 PUSH2 0x682 JUMP JUMPDEST SWAP2 POP PUSH2 0x745 DUP3 PUSH2 0x706 JUMP JUMPDEST PUSH1 0x20 DUP3 ADD SWAP1 POP SWAP2 SWAP1 POP JUMP JUMPDEST PUSH0 PUSH1 0x20 DUP3 ADD SWAP1 POP DUP2 DUP2 SUB PUSH0 DUP4 ADD MSTORE PUSH2 0x767 DUP2 PUSH2 0x72E JUMP JUMPDEST SWAP1 POP SWAP2 SWAP1 POP JUMP JUMPDEST PUSH0 PUSH1 0x40 DUP3 ADD SWAP1 POP PUSH2 0x781 PUSH0 DUP4 ADD DUP6 PUSH2 0x5D8 JUMP JUMPDEST DUP2 DUP2 SUB PUSH1 0x20 DUP4 ADD MSTORE PUSH2 0x793 DUP2 DUP5 PUSH2 0x692 JUMP JUMPDEST SWAP1 POP SWAP4 SWAP3 POP POP POP JUMP INVALID LOG2 PUSH5 0x6970667358 0x22 SLT KECCAK256 0x21 0xA9 DUP5 0xFB PUSH26 0x5AB4E3C7B496AC71FA45781C198766302BB802D92F5E1AABE99A 0xE0 PUSH5 0x736F6C6343 STOP ADDMOD EQ STOP CALLER "},"methodIdentifiers":{"checkAccess(address,string)":"a5657a91","grantPermission(address,string)":"bbd9a5fa","registerDevice(address)":"6dc7b9a5"}}}}}